:100000000C9434000C9465010C948E010C945100F6
:100010000C9451000C9451000C9451000C9451001C
:100020000C9451000C9451000C9451000C9451000C
:100030000C9451000C9451000C94C6010C94510086
:100040000C9451000C9451000C9451000C945100EC
:100050000C9451000C9451000C9451000C945100DC
:100060000C9451000C94510011241FBECFEFD8E026
:10007000DEBFCDBF11E0A0E0B1E0EEEEFEE002C0D9
:1000800005900D92AA32B107D9F721E0AAE2B1E0BA
:1000900001C01D92A034B207E1F70E94F2060C9451
:1000A00075070C94000081309105D1F082309105E4
:1000B00061F1892BD9F581E090E0A0E0B0E004C0C7
:1000C000880F991FAA1FBB1F6A95D2F724B1413030
:1000D000510519F4822B84B9089580958223FBCFB2
:1000E00081E090E0A0E0B0E004C0880F991FAA1F53
:1000F000BB1F6A95D2F727B14130510519F4822B05
:1001000087B9089580958223FBCF81E090E0A0E03D
:10011000B0E004C0880F991FAA1FBB1F6A95D2F7D1
:100120002AB14130510519F4822B8AB9089580957E
:100130008223FBCF81309105C9F08230910551F1C6
:10014000892BC1F581E090E0A0E0B0E004C0880F09
:10015000991FAA1FBB1F6A95D2F725B1452B19F02D
:10016000822B85B9089580958223FBCF81E090E0B2
:10017000A0E0B0E004C0880F991FAA1FBB1F6A95BA
:10018000D2F728B1452B19F0822B88B908958095B4
:100190008223FBCF81E090E0A0E0B0E004C0880FB4
:1001A000991FAA1FBB1F6A95D2F72BB1452B19F0D7
:1001B000822B8BB9089580958223FBCF81309105E6
:1001C00099F08230910591F0892B91F483B190E000
:1001D000A0E0B0E004C0B695A795979587956A957D
:1001E000D2F781709927089586B1F1CF89B1EFCF09
:1001F00080E090E0089581309105A1F08230910572
:1002000001F1892B61F525B181E090E0A0E0B0E03B
:1002100004C0880F991FAA1FBB1F6A95D2F78227B7
:1002200085B9089528B181E090E0A0E0B0E004C075
:10023000880F991FAA1FBB1F6A95D2F7822788B91A
:1002400008952BB181E090E0A0E0B0E004C0880FF9
:10025000991FAA1FBB1F6A95D2F782278BB90895F1
:10026000F894813088F4809169008C7F80936900D4
:1002700080916900862B8093690040932C015093F4
:100280002D01E89A78940895E9F780916900837FB9
:100290008093690080916900660F660F682B6093F8
:1002A000690040932A0150932B01E99AEBCF8130EA
:1002B00010F4E89A089509F4E99A0895813010F449
:1002C000E898089509F4E99808951F920F920FB6DF
:1002D0000F9211242F933F934F935F936F937F93CC
:1002E0008F939F93AF93BF93EF93FF93E0912C0174
:1002F000F0912D01309709F00995FF91EF91BF9191
:10030000AF919F918F917F916F915F914F913F91AD
:100310002F910F900FBE0F901F9018951F920F9264
:100320000FB60F9211242F933F934F935F936F93C8
:100330007F938F939F93AF93BF93EF93FF93E0913E
:100340002A01F0912B01309709F00995FF91EF9167
:10035000BF91AF919F918F917F916F915F914F91DD
:100360003F912F910F900FBE0F901F90189584B55D
:10037000826084BD89EF87BDEEE6F0E08081826017
:10038000808385B5836085BD789408951F921FB6DC
:100390001F9211248F939F93AF93BF9380912E014F
:1003A00090912F01A0913001B09131010196A11DD2
:1003B000B11D80932E0190932F01A0933001B09333
:1003C0003101BF91AF919F918F911F901FBE1F90E0
:1003D00018952FB7F89460912E0170912F0180919C
:1003E0003001909131012FBF089522EA20938000BF
:1003F00028E1209381007093870060938600803409
:10040000910531F148F48130910511F0089779F0A8
:100410008091810081600EC0811521E09207E1F09A
:1004200081159440A9F780918100856003C0809177
:100430008100826080938100109289001092880070
:1004400010928B0010928A0084B1866084B908955E
:10045000809181008360EECF809181008460EACF3B
:1004600020918600309187002817390720F4809169
:10047000860090918700909389008093880008956A
:1004800020918600309187002817390720F4809149
:1004900086009091870090938B0080938A00089546
:1004A000E1E8F0E08081887F8083089523EA20934B
:1004B000B0009C0121503109AC0142275327241779
:1004C000350798F40E945C0701978930910568F41C
:1004D0008D5F9E4FFC0180818093B1001092B3002C
:1004E0001092B400239A539A089587E0F5CF809331
:1004F000B30008958093B4000895E1EBF0E08081AB
:10050000887F808308952F923F924F925F926F92DF
:100510007F928F929F92AF92BF92CF92DF92EF9293
:10052000FF920F931F93CF93DF93CDB7DEB7609702
:100530000FB6F894DEBF0FBECDBF082F162F69018E
:100540007A0141E050E090E00E9453000111D2C0D6
:100550008FEF810F823008F068C08AE0ECE0F1E0B4
:10056000DE01119601900D928A95E1F78E010F5FE1
:100570001F4F3E012BE0620E711C212C24E2322E13
:1005800024EF422E512CF801A080B180D5019601B4
:10059000A7010E946A079B01AC01B101C2010E9440
:1005A0003A07B901CA01615071098109910900979F
:1005B000F1F00E5F1F4F6016710629F760960FB6B7
:1005C000F894DEBF0FBECDBFDF91CF911F910F9189
:1005D000FF90EF90DF90CF90BF90AF909F908F9063
:1005E0007F906F905F904F903F902F900895A1144F
:1005F000B10421F3C50160960FB6F894DEBF0FBEBB
:10060000CDBFDF91CF911F910F91FF90EF90DF90C1
:10061000CF90BF90AF909F908F907F906F905F90A2
:100620004F903F902F900C94F501133039F68EE0E7
:10063000E6E1F1E0DE01119601900D928A95E1F775
:100640008E010F5F1F4F4E012FE0820E911C9FEF16
:10065000792E672C2301B12C84E0888BF801A080CF
:10066000F181FF870E5F1F4F3A2C212C910140E052
:1006700050E060E074E284EF90E00E943A07C21616
:10068000D306E406F50678F5C901DA018C199D094F
:10069000AE09BF0984159505A605B70528F42C01F8
:1006A0003D01BA2C2F85288B08151905B9F68B2D1D
:1006B000988960960FB6F894DEBF0FBECDBFDF916C
:1006C000CF911F910F91FF90EF90DF90CF90BF904F
:1006D000AF909F908F907F906F905F904F903F90E2
:1006E0002F900C945602C601D701821B930BA40BCA
:1006F000B50BD0CF023009F061CF133009F05ECFD7
:100700008EE0E6E1F1E0DE01119601900D928A950E
:10071000E1F78E010F5F1F4F1E018FE0280E311C85
:100720008FEF782E672C2301B12CE4E0E88BF801E1
:10073000A080F181FF870E5F1F4F9A2C812C9401BE
:1007400040E050E060E074E284EF90E00E943A07FD
:10075000C216D306E406F506A0F4C901DA018C1925
:100760009D09AE09BF0984159505A605B70528F4AE
:100770002C013D01BA2C2F85288B02151305B9F6E3
:1007800096CFC601D701821B930BA40BB50BEBCF01
:10079000982F842F911128C0613081F4A091860098
:1007A000B0918700242F30E00E942B072FEF40E00C
:1007B00050E00E943A07C9010C943002623081F483
:1007C000A0918600B0918700242F30E00E942B0773
:1007D0002FEF40E050E00E943A07C9010C9440021C
:1007E000633041F40C947702923021F4633011F4B9
:1007F0000C947A02089581110AC08FEF860F82301F
:1008000010F40C945002633021F40C947D02823079
:10081000D1F30895F999FECF92BD81BDF89A80B5C4
:100820000895F999FECF92BD81BD60BD8FB7F89450
:10083000FA9AF99A8FBF0895CF93DF9300D00F9261
:10084000CDB7DEB789839A836B830E940A049B81AC
:10085000891751F0692F89819A810F900F900F901D
:10086000DF91CF910C9411040F900F900F90DF91B6
:10087000CF91089580E480937C0087E080937A0094
:1008800080917A00806880937A0080917A008064F9
:1008900080937A0080917A0086FDFCCF8091780069
:1008A00080917900089590917C008770907F892BCA
:1008B00080937C0080917A00806480937A0080919C
:1008C0007A0086FDFCCF809178008091790080913C
:1008D0007A00806480937A0080917A0086FDFCCF54
:1008E0008091780020917900922F08950F931F93A3
:1008F000CF93DF9300D000D0CDB7DEB78B019C0142
:10090000A0E0B0E0CD0180179107A207B30749F43A
:100910000F900F900F900F90DF91CF911F910F913B
:10092000089519821A821B821C8249815A816B8127
:100930007C81483E53406105710520F00196A11D60
:10094000B11DE1CF000049815A816B817C814F5FED
:100950005F4F6F4F7F4F49835A836B837C83E5CF13
:100960009A0140E050E0E4E0220F331F441F551F7E
:10097000EA95D1F70E943A07C901DA0101979093ED
:10098000C5008093C40088E18093C10086E0809315
:10099000C2000895FC01680F792F711DE617F70753
:1009A00009F408958091C00085FFFCCF8191809368
:1009B000C600F4CFEF92FF920F931F93CF93DF9374
:1009C00000D000D000D0CDB7DEB78C010E94E90185
:1009D00069837A838B839C8378011D821E820E94A7
:1009E000E90129813A814B815C81621B730B840B85
:1009F000950B693E73408105910528F44D815E8118
:100A000042335105A1F4ED81FE81E00FF11F108208
:100A10008D819E810F900F900F900F900F900F90EF
:100A2000DF91CF911F910F91FF90EF9008958091EA
:100A3000C00087FFD4CF8091C600F70181937F016A
:100A40000E94E90169837A838B839C83F7018291F9
:100A50008A30C9F28D30B9F22D813E812F5F3F4F30
:100A60002D833E83BCCF40E050E067E082E090E021
:100A70000E94530041E050E067E082E090E00E9475
:100A80009A0040E050E060E0CA010E94530041E05B
:100A900050E060E080E090E00C949A00EF92FF92CA
:100AA0000F931F93CF93DF93C82F67E082E090E00E
:100AB000C11519F060E080E090E00E94DE00D82FC0
:100AC0000E94E901EC2FF0E0DF01A050BF4F2C9114
:100AD0002D17F1F0EE0FFF1FEE0FFF1FEE5CFE4F24
:100AE00020813181428153817B018C01E21AF30A1A
:100AF000040B150B9701A80122333105410551055F
:100B000038F0DC93608371838283938381E0D11119
:100B100080E0DF91CF911F910F91FF90EF900895AA
:100B2000CF93DF9300D00F92CDB7DEB784E291E090
:100B30008A839B83EA81FB812191EA83FB8329835A
:100B400041E050E0622F82E090E00E94530040E0DC
:100B500050E0698182E090E00E949A008A819B8146
:100B60008952914039F70F900F900F90DF91CF91FC
:100B700008958F929F92AF92BF92CF92DF92EF92A1
:100B8000FF920F931F93CF93DF938C01EC0197FF9C
:100B900004C0CC27DD27C81BD90B80910201C333C9
:100BA000D10504F5811111C0C4E2D1E009E211E0E0
:100BB000699140E050E082E090E00E949A000C17BA
:100BC0001D07B1F781E080930201DF91CF911F9162
:100BD0000F91FF90EF90DF90CF90BF90AF909F90DC
:100BE0008F9008958115D9F0E0913E01FE2FFF0FFF
:100BF000FF0BEC5DFE4F41E050E0608182E090E051
:100C00000E949A00109202010E94E90160933A0149
:100C100070933B0180933C0190933D01D6CF0E949D
:100C2000E9016B017C0180913A0190913B01A09117
:100C30003C01B0913D0146015701881A990AAA0A60
:100C4000BB0A9E0122533109AAEAB0E00E942B0799
:100C50002EEC31E040E050E00E943A0788EC90E052
:100C6000A0E0B0E0821B930BA40BB50B881699068D
:100C7000AA06BB0608F4A9CFC0923A01D0923B0164
:100C8000E0923C01F0923D01E0913E01FE2FFF0F0A
:100C9000FF0BEC5DFE4F40E050E0608182E090E0B1
:100CA0000E949A0080913E011016110614F58F5F84
:100CB00085301CF480933E0102C010923E01E09109
:100CC0003E01FE2FFF0FFF0BEC5DFE4F41E050E0B9
:100CD000608182E090E0DF91CF911F910F91FF90B2
:100CE000EF90DF90CF90BF90AF909F908F900C943B
:100CF0009A008150FAF684E0DDCF40913F014170C7
:100D000050E064E081E090E00E949A0040913F0151
:100D10004695417050E063E080E090E00E949A00C8
:100D200040913F0142FB442740F950E064E080E0FD
:100D300090E00E949A0040913F0143FB442740F914
:100D400050E065E080E090E00E949A0040913F0111
:100D50004295417050E062E081E090E00E949A008C
:100D600040913F0145FB442740F950E063E081E0BA
:100D700090E00C949A0041E050E064E0CA010E94C7
:100D8000530041E050E063E080E090E00E945300B7
:100D900041E050E064E080E090E00E94530041E0D8
:100DA00050E065E080E090E00E94530041E050E0B8
:100DB00062E0CA010E94530041E050E063E0CA01D2
:100DC0000E94530010923F010C947D0680913F01D8
:100DD0008F5F8F7380933F010C947D0610923F01CB
:100DE0000C947D060E94B7010E943A0441E050E055
:100DF00061E080E090E00E94530028EE33E040E0A4
:100E000050E061E080E00E9483020E9490050E9411
:100E1000BB060E94330580E00E945304AC01569546
:100E200047955695479561E080E00E94C80381E0B0
:100E30000E94530492500E94B90580E00E944E0522
:100E400081110E94E60681E00E944E05811519F38A
:100E50000E94EE06E0CFA29FB001B39FC001A39F06
:100E6000700D811D1124911DB29F700D811D1124E3
:100E7000911D0895A1E21A2EAA1BBB1BFD010DC0F6
:100E8000AA1FBB1FEE1FFF1FA217B307E407F5073A
:100E900020F0A21BB30BE40BF50B661F771F881F16
:100EA000991F1A9469F760957095809590959B01AC
:100EB000AC01BD01CF010895AA2781110C946407EC
:100EC000A8E0892BD9F70895A3958695E8F78A2F8E
:100ED000992708950E942B07A59F900DB49F900D10
:0E0EE000A49F800D911D11240895F894FFCF5A
:100EEE0001010101070702070304050601000800BE
:100EFE0040000001000401000800200040008000B6
:0A0F0E0000010004020304050600C0
:00000001FF
